:100000000C9474000C9495000C9495000C9495003D
:100010000C9495000C9495000C9495000C9495000C
:100020000C9495000C9495000C9495000C949500FC
:100030000C9495000C9495000C9495000C949500EC
:100040000C9495000C9495000C9495000C949500DC
:100050000C9495000C9495000C9495000C949500CC
:100060000C9495000C9495000C9495000C949500BC
:100070000C9495000C9495000C9495000C949500AC
:100080000C9495000C9495000C9495000C9495009C
:100090000C9495000C9495000C9495000C9495008C
:1000A0000C9495000C9495000C9495000C9495007C
:1000B0000C9495000C9495000C9495000C9495006C
:1000C0000C9495000C9495000C9495000C9495005C
:1000D0000C9495000C9495000C9495000C9495004C
:1000E0000C9495000C94970011241FBECFEFD1E221
:1000F000DEBFCDBF00E00CBF12E0A0E0B2E0E0E761
:10010000F2E000E00BBF02C007900D92AE30B107E5
:10011000D9F722E0AEE0B2E001C01D92A431B207EF
:10012000E1F70E942F010C9436010C9400008A30F4
:1001300049F09091C00095FFFCCF8093C60080E00D
:1001400090E008959091C00095FFFCCF9DE09093C2
:10015000C600EFCF9093C5008093C40086E08093E3
:10016000C20088E98093C10008959091C00095FF76
:10017000FCCF8093C60008958091C00087FFFCCF1C
:100180008091C60008958091C00087FB882780F980
:100190000895FC019081911551F031968091C00035
:1001A00085FFFCCF9093C60091919111F7CF0895F0
:1001B00080E092E090931102809310021092C500AB
:1001C00082E38093C40086E08093C20088E9809334
:1001D000C10008951092C50083E38093C40086E0B7
:1001E0008093C20088E98093C10008959091C00077
:1001F00095FFFCCF8093C6000895FC019081911576
:1002000051F031968091C00085FFFCCF9093C600DD
:1002100091919111F7CF08958091C00087FFFCCF95
:100220008091C60008959C019091C00097FFFCCF7B
:100230009091C600F9019193911569F09A3021F0DF
:100240009D3011F09F01F0CF10822E5F3F4F922F13
:10025000981B892F08959E2F981B892F08950E941F
:10026000EA00269A249A25982D9AFFCFF894FFCF7A
:0E0270000000000200000000970000000000E7
:00000001FF
